{"abi":[{"type":"constructor","inputs":[{"name":"_token","type":"address","internalType":"address"},{"name":"_initialOwner","type":"address","internalType":"address"}],"stateMutability":"nonpayable"},{"type":"receive","stateMutability":"payable"},{"type":"function","name":"CHAIN_ID","inputs":[],"outputs":[{"name":"","type":"uint256","internalType":"uint256"}],"stateMutability":"view"},{"type":"function","name":"addLiquidity","inputs":[{"name":"amount","type":"uint256","internalType":"uint256"}],"outputs":[],"stateMutability":"payable"},{"type":"function","name":"authorizedRelayers","inputs":[{"name":"","type":"address","internalType":"address"}],"outputs":[{"name":"","type":"bool","internalType":"bool"}],"stateMutability":"view"},{"type":"function","name":"emergencyTokenRecovery","inputs":[{"name":"tokenAddress","type":"address","internalType":"address"},{"name":"amount","type":"uint256","internalType":"uint256"}],"outputs":[],"stateMutability":"nonpayable"},{"type":"function","name":"getAvailableLiquidity","inputs":[],"outputs":[{"name":"","type":"uint256","internalType":"uint256"}],"stateMutability":"view"},{"type":"function","name":"getContractBalance","inputs":[],"outputs":[{"name":"","type":"uint256","internalType":"uint256"}],"stateMutability":"view"},{"type":"function","name":"getMessageHash","inputs":[{"name":"user","type":"address","internalType":"address"},{"name":"amount","type":"uint256","internalType":"uint256"},{"name":"nonce","type":"uint256","internalType":"uint256"},{"name":"sourceChainId","type":"uint256","internalType":"uint256"},{"name":"targetChainId","type":"uint256","internalType":"uint256"},{"name":"targetContract","type":"address","internalType":"address"}],"outputs":[{"name":"","type":"bytes32","internalType":"bytes32"}],"stateMutability":"pure"},{"type":"function","name":"isNonceProcessed","inputs":[{"name":"user","type":"address","internalType":"address"},{"name":"nonce","type":"uint256","internalType":"uint256"}],"outputs":[{"name":"","type":"bool","internalType":"bool"}],"stateMutability":"view"},{"type":"function","name":"lockTokens","inputs":[{"name":"amount","type":"uint256","internalType":"uint256"},{"name":"nonce","type":"uint256","internalType":"uint256"},{"name":"targetChainId","type":"uint256","internalType":"uint256"},{"name":"to","type":"uint256","internalType":"uint256"}],"outputs":[],"stateMutability":"payable"},{"type":"function","name":"lockedBalances","inputs":[{"name":"","type":"address","internalType":"address"}],"outputs":[{"name":"","type":"uint256","internalType":"uint256"}],"stateMutability":"view"},{"type":"function","name":"otherChainContract","inputs":[],"outputs":[{"name":"","type":"bytes32","internalType":"bytes32"}],"stateMutability":"view"},{"type":"function","name":"owner","inputs":[],"outputs":[{"name":"","type":"address","internalType":"address"}],"stateMutability":"view"},{"type":"function","name":"pause","inputs":[],"outputs":[],"stateMutability":"nonpayable"},{"type":"function","name":"paused","inputs":[],"outputs":[{"name":"","type":"bool","internalType":"bool"}],"stateMutability":"view"},{"type":"function","name":"processedNonces","inputs":[{"name":"","type":"address","internalType":"address"},{"name":"","type":"uint256","internalType":"uint256"}],"outputs":[{"name":"","type":"bool","internalType":"bool"}],"stateMutability":"view"},{"type":"function","name":"removeLiquidity","inputs":[{"name":"amount","type":"uint256","internalType":"uint256"}],"outputs":[],"stateMutability":"nonpayable"},{"type":"function","name":"renounceOwnership","inputs":[],"outputs":[],"stateMutability":"nonpayable"},{"type":"function","name":"setOtherChainContract","inputs":[{"name":"_otherChainContract","type":"bytes32","internalType":"bytes32"}],"outputs":[],"stateMutability":"nonpayable"},{"type":"function","name":"setRelayerStatus","inputs":[{"name":"relayer","type":"address","internalType":"address"},{"name":"authorized","type":"bool","internalType":"bool"}],"outputs":[],"stateMutability":"nonpayable"},{"type":"function","name":"token","inputs":[],"outputs":[{"name":"","type":"address","internalType":"contract IERC20"}],"stateMutability":"view"},{"type":"function","name":"totalLocked","inputs":[],"outputs":[{"name":"","type":"uint256","internalType":"uint256"}],"stateMutability":"view"},{"type":"function","name":"transferOwnership","inputs":[{"name":"newOwner","type":"address","internalType":"address"}],"outputs":[],"stateMutability":"nonpayable"},{"type":"function","name":"unlockTokens","inputs":[{"name":"user","type":"address","internalType":"address"},{"name":"amount","type":"uint256","internalType":"uint256"},{"name":"nonce","type":"uint256","internalType":"uint256"},{"name":"sourceChainId","type":"uint256","internalType":"uint256"},{"name":"signature","type":"bytes","internalType":"bytes"}],"outputs":[],"stateMutability":"nonpayable"},{"type":"function","name":"unpause","inputs":[],"outputs":[],"stateMutability":"nonpayable"},{"type":"event","name":"LiquidityAdded","inputs":[{"name":"amount","type":"uint256","indexed":false,"internalType":"uint256"}],"anonymous":false},{"type":"event","name":"LiquidityRemoved","inputs":[{"name":"amount","type":"uint256","indexed":false,"internalType":"uint256"}],"anonymous":false},{"type":"event","name":"OwnershipTransferred","inputs":[{"name":"previousOwner","type":"address","indexed":true,"internalType":"address"},{"name":"newOwner","type":"address","indexed":true,"internalType":"address"}],"anonymous":false},{"type":"event","name":"Paused","inputs":[{"name":"account","type":"address","indexed":false,"internalType":"address"}],"anonymous":false},{"type":"event","name":"TokensLocked","inputs":[{"name":"user","type":"address","indexed":true,"internalType":"address"},{"name":"amount","type":"uint256","indexed":false,"internalType":"uint256"},{"name":"nonce","type":"uint256","indexed":false,"internalType":"uint256"},{"name":"chainId","type":"uint256","indexed":false,"internalType":"uint256"},{"name":"to","type":"uint256","indexed":false,"internalType":"uint256"}],"anonymous":false},{"type":"event","name":"TokensUnlocked","inputs":[{"name":"user","type":"address","indexed":true,"internalType":"address"},{"name":"amount","type":"uint256","indexed":false,"internalType":"uint256"},{"name":"nonce","type":"uint256","indexed":false,"internalType":"uint256"},{"name":"sourceChainId","type":"uint256","indexed":false,"internalType":"uint256"}],"anonymous":false},{"type":"event","name":"Unpaused","inputs":[{"name":"account","type":"address","indexed":false,"internalType":"address"}],"anonymous":false},{"type":"error","name":"ECDSAInvalidSignature","inputs":[]},{"type":"error","name":"ECDSAInvalidSignatureLength","inputs":[{"name":"length","type":"uint256","internalType":"uint256"}]},{"type":"error","name":"ECDSAInvalidSignatureS","inputs":[{"name":"s","type":"bytes32","internalType":"bytes32"}]},{"type":"error","name":"EnforcedPause","inputs":[]},{"type":"error","name":"ExpectedPause","inputs":[]},{"type":"error","name":"InsufficientBalance","inputs":[]},{"type":"error","name":"InsufficientLiquidity","inputs":[]},{"type":"error","name":"InvalidAddress","inputs":[]},{"type":"error","name":"InvalidAmount","inputs":[]},{"type":"error","name":"InvalidSignature","inputs":[]},{"type":"error","name":"OwnableInvalidOwner","inputs":[{"name":"owner","type":"address","internalType":"address"}]},{"type":"error","name":"OwnableUnauthorizedAccount","inputs":[{"name":"account","type":"address","internalType":"address"}]},{"type":"error","name":"ReentrancyGuardReentrantCall","inputs":[]},{"type":"error","name":"TransferAlreadyProcessed","inputs":[]},{"type":"error","name":"UnauthorizedRelayer","inputs":[]}],"bytecode":{"object":"0x60c060405234801561000f575f5ffd5b50604051612a62380380612a628339818101604052810190610031919061021b565b805f73ffffffffffffffffffffffffffffffffffffffff168173ffffffffffffffffffffffffffffffffffffffff16036100a2575f6040517f1e4fbdf70000000000000000000000000000000000000000000000000000000081526004016100999190610268565b60405180910390fd5b6100b1816100fc60201b60201c565b50600180819055508173ffffffffffffffffffffffffffffffffffffffff1660808173ffffffffffffffffffffffffffffffffffffffff16815250504660a081815250505050610281565b5f5f5f9054906101000a900473ffffffffffffffffffffffffffffffffffffffff169050815f5f6101000a81548173ffffffffffffffffffffffffffffffffffffffff021916908373ffffffffffffffffffffffffffffffffffffffff1602179055508173ffffffffffffffffffffffffffffffffffffffff168173ffffffffffffffffffffffffffffffffffffffff167f8be0079c531659141344cd1fd0a4f28419497f9722a3daafe3b4186f6b6457e060405160405180910390a35050565b5f5ffd5b5f73ffffffffffffffffffffffffffffffffffffffff82169050919050565b5f6101ea826101c1565b9050919050565b6101fa816101e0565b8114610204575f5ffd5b50565b5f81519050610215816101f1565b92915050565b5f5f60408385031215610231576102306101bd565b5b5f61023e85828601610207565b925050602061024f85828601610207565b9150509250929050565b610262816101e0565b82525050565b5f60208201905061027b5f830184610259565b92915050565b60805160a05161275e6103045f395f8181610c7f015261103a01525f81816106e3015281816107960152818161098f01528181610a4201528181610b4e01528181610b92015281816111d00152818161125501528181611371015281816113b5015281816115110152818161159d015281816116960152611864015261275e5ff3fe60806040526004361061014e575f3560e01c806385e1f4d0116100b55780639c8f9f231161006e5780639c8f9f2314610439578063a0193ac814610461578063b49b0cb314610489578063c622dfcd146104b1578063f2fde38b146104ed578063fc0c546a1461051557610155565b806385e1f4d01461032f57806386015834146103595780638da5cb5b1461038157806390bb075d146103ab57806399d8f22b146103e75780639b745aec1461040f57610155565b8063568914121161010757806356891412146102495780635c975abb146102735780636f9fb98a1461029d578063715018a6146102c75780637cc70240146102dd5780638456cb591461031957610155565b80630483a7f6146101595780630ef00a6e1461019557806324a94bd5146101b157806329e295c5146101db5780633f4ba83a1461021757806351c6590a1461022d57610155565b3661015557005b5f5ffd5b348015610164575f5ffd5b5061017f600480360381019061017a9190611ec5565b61053f565b60405161018c9190611f08565b60405180910390f35b6101af60048036038101906101aa9190611f4b565b610554565b005b3480156101bc575f5ffd5b506101c5610900565b6040516101d29190611fc7565b60405180910390f35b3480156101e6575f5ffd5b5061020160048036038101906101fc9190611ec5565b610906565b60405161020e9190611ffa565b60405180910390f35b348015610222575f5ffd5b5061022b610923565b005b61024760048036038101906102429190612013565b610935565b005b348015610254575f5ffd5b5061025d610b19565b60405161026a9190611f08565b60405180910390f35b34801561027e575f5ffd5b50610287610b1f565b6040516102949190611ffa565b60405180910390f35b3480156102a8575f5ffd5b506102b1610b34565b6040516102be9190611f08565b60405180910390f35b3480156102d2575f5ffd5b506102db610c2e565b005b3480156102e8575f5ffd5b5061030360048036038101906102fe919061203e565b610c41565b6040516103109190611ffa565b60405180910390f35b348015610324575f5ffd5b5061032d610c6b565b005b34801561033a575f5ffd5b50610343610c7d565b6040516103509190611f08565b60405180910390f35b348015610364575f5ffd5b5061037f600480360381019061037a91906120a6565b610ca1565b005b34801561038c575f5ffd5b50610395610d66565b6040516103a291906120f3565b60405180910390f35b3480156103b6575f5ffd5b506103d160048036038101906103cc919061203e565b610d8d565b6040516103de9190611ffa565b60405180910390f35b3480156103f2575f5ffd5b5061040d6004803603810190610408919061216d565b610def565b005b34801561041a575f5ffd5b50610423611356565b6040516104309190611f08565b60405180910390f35b348015610444575f5ffd5b5061045f600480360381019061045a9190612013565b611472565b005b34801561046c575f5ffd5b506104876004803603810190610482919061222d565b61167a565b005b348015610494575f5ffd5b506104af60048036038101906104aa919061203e565b61168c565b005b3480156104bc575f5ffd5b506104d760048036038101906104d29190612258565b6117a0565b6040516104e49190611fc7565b60405180910390f35b3480156104f8575f5ffd5b50610513600480360381019061050e9190611ec5565b6117de565b005b348015610520575f5ffd5b50610529611862565b604051610536919061233c565b60405180910390f35b6005602052805f5260405f205f915090505481565b61055c611886565b6105646118cc565b5f840361059d576040517f2c5211c600000000000000000000000000000000000000000000000000000000815260040160405180910390fd5b5f81036105d6576040517fe6c4247b00000000000000000000000000000000000000000000000000000000815260040160405180910390fd5b60045f3373ffffffffffffffffffffffffffffffffffffffff1673ffffffffffffffffffffffffffffffffffffffff1681526020019081526020015f205f8481526020019081526020015f205f9054906101000a900460ff1615610666576040517f247ff34500000000000000000000000000000000000000000000000000000000815260040160405180910390fd5b600160045f3373ffffffffffffffffffffffffffffffffffffffff1673ffffffffffffffffffffffffffffffffffffffff1681526020019081526020015f205f8581526020019081526020015f205f6101000a81548160ff0219169083151502179055505f73ffffffffffffffffffffffffffffffffffffffff167f000000000000000000000000000000000000000000000000000000000000000073ffffffffffffffffffffffffffffffffffffffff160361075b57833414610756576040517f2c5211c600000000000000000000000000000000000000000000000000000000815260040160405180910390fd5b610833565b5f3414610794576040517f2c5211c600000000000000000000000000000000000000000000000000000000815260040160405180910390fd5b7f000000000000000000000000000000000000000000000000000000000000000073ffffffffffffffffffffffffffffffffffffffff166323b872dd3330876040518463ffffffff1660e01b81526004016107f193929190612355565b6020604051808303815f875af115801561080d573d5f5f3e3d5ffd5b505050506040513d601f19601f82011682018060405250810190610831919061239e565b505b8360055f3373ffffffffffffffffffffffffffffffffffffffff1673ffffffffffffffffffffffffffffffffffffffff1681526020019081526020015f205f82825461087f91906123f6565b925050819055508360065f82825461089791906123f6565b925050819055503373ffffffffffffffffffffffffffffffffffffffff167fa2e3c0f7de988ae3bbc6bbd90484543ee1f08d1534bb75c6cf1337a7da7d9c51858585856040516108ea9493929190612429565b60405180910390a26108fa61190d565b50505050565b60035481565b6007602052805f5260405f205f915054906101000a900460ff1681565b61092b611916565b61093361199d565b565b61093d611916565b5f8103610976576040517f2c5211c600000000000000000000000000000000000000000000000000000000815260040160405180910390fd5b5f73ffffffffffffffffffffffffffffffffffffffff167f000000000000000000000000000000000000000000000000000000000000000073ffffffffffffffffffffffffffffffffffffffff1603610a0757803414610a02576040517f2c5211c600000000000000000000000000000000000000000000000000000000815260040160405180910390fd5b610adf565b5f3414610a40576040517f2c5211c600000000000000000000000000000000000000000000000000000000815260040160405180910390fd5b7f000000000000000000000000000000000000000000000000000000000000000073ffffffffffffffffffffffffffffffffffffffff166323b872dd3330846040518463ffffffff1660e01b8152600401610a9d93929190612355565b6020604051808303815f875af1158015610ab9573d5f5f3e3d5ffd5b505050506040513d601f19601f82011682018060405250810190610add919061239e565b505b7ffdb748c915e4e67b4bb23287bf4295a4595ce48b50343214369f72ccfb974cfa81604051610b0e9190611f08565b60405180910390a150565b60065481565b5f60025f9054906101000a900460ff16905090565b5f5f73ffffffffffffffffffffffffffffffffffffffff167f000000000000000000000000000000000000000000000000000000000000000073ffffffffffffffffffffffffffffffffffffffff1603610b9057479050610c2b565b7f000000000000000000000000000000000000000000000000000000000000000073ffffffffffffffffffffffffffffffffffffffff166370a08231306040518263ffffffff1660e01b8152600401610be991906120f3565b602060405180830381865afa158015610c04573d5f5f3e3d5ffd5b505050506040513d601f19601f82011682018060405250810190610c289190612480565b90505b90565b610c36611916565b610c3f5f6119fe565b565b6004602052815f5260405f20602052805f5260405f205f915091509054906101000a900460ff1681565b610c73611916565b610c7b611abf565b565b7f000000000000000000000000000000000000000000000000000000000000000081565b610ca9611916565b5f73ffffffffffffffffffffffffffffffffffffffff168273ffffffffffffffffffffffffffffffffffffffff1603610d0e576040517fe6c4247b00000000000000000000000000000000000000000000000000000000815260040160405180910390fd5b8060075f8473ffffffffffffffffffffffffffffffffffffffff1673ffffffffffffffffffffffffffffffffffffffff1681526020019081526020015f205f6101000a81548160ff0219169083151502179055505050565b5f5f5f9054906101000a900473ffffffffffffffffffffffffffffffffffffffff16905090565b5f60045f8473ffffffffffffffffffffffffffffffffffffffff1673ffffffffffffffffffffffffffffffffffffffff1681526020019081526020015f205f8381526020019081526020015f205f9054906101000a900460ff16905092915050565b610df7611886565b610dff6118cc565b60075f3373ffffffffffffffffffffffffffffffffffffffff1673ffffffffffffffffffffffffffffffffffffffff1681526020019081526020015f205f9054906101000a900460ff16158015610e895750610e59610d66565b73ffffffffffffffffffffffffffffffffffffffff163373ffffffffffffffffffffffffffffffffffffffff1614155b15610ec0576040517f3c20627b00000000000000000000000000000000000000000000000000000000815260040160405180910390fd5b5f73ffffffffffffffffffffffffffffffffffffffff168673ffffffffffffffffffffffffffffffffffffffff1603610f25576040517fe6c4247b00000000000000000000000000000000000000000000000000000000815260040160405180910390fd5b5f8503610f5e576040517f2c5211c600000000000000000000000000000000000000000000000000000000815260040160405180910390fd5b60045f8773ffffffffffffffffffffffffffffffffffffffff1673ffffffffffffffffffffffffffffffffffffffff1681526020019081526020015f205f8581526020019081526020015f205f9054906101000a900460ff1615610fee576040517f247ff34500000000000000000000000000000000000000000000000000000000815260040160405180910390fd5b5f610ff7611356565b905085811015611033576040517fbb55fd2700000000000000000000000000000000000000000000000000000000815260040160405180910390fd5b5f878787877f000000000000000000000000000000000000000000000000000000000000000060035460405160200161107196959493929190612530565b6040516020818303038152906040528051906020012090505f61109382611b21565b90505f6110ec86868080601f0160208091040260200160405190810160405280939291908181526020018383808284375f81840152601f19601f8201169050808301925050505050505083611b5490919063ffffffff16565b90508973ffffffffffffffffffffffffffffffffffffffff168173ffffffffffffffffffffffffffffffffffffffff1614611153576040517f8baa579f00000000000000000000000000000000000000000000000000000000815260040160405180910390fd5b600160045f8c73ffffffffffffffffffffffffffffffffffffffff1673ffffffffffffffffffffffffffffffffffffffff1681526020019081526020015f205f8a81526020019081526020015f205f6101000a81548160ff0219169083151502179055505f73ffffffffffffffffffffffffffffffffffffffff167f000000000000000000000000000000000000000000000000000000000000000073ffffffffffffffffffffffffffffffffffffffff1603611253578973ffffffffffffffffffffffffffffffffffffffff166108fc8a90811502906040515f60405180830381858888f1935050505015801561124d573d5f5f3e3d5ffd5b506112f0565b7f000000000000000000000000000000000000000000000000000000000000000073ffffffffffffffffffffffffffffffffffffffff1663a9059cbb8b8b6040518363ffffffff1660e01b81526004016112ae92919061259f565b6020604051808303815f875af11580156112ca573d5f5f3e3d5ffd5b505050506040513d601f19601f820116820180604052508101906112ee919061239e565b505b8973ffffffffffffffffffffffffffffffffffffffff167f2736fb24d52f9268e829a25b5684fb0a60e6b37ae2297f7e62eea9f836a73da78a8a8a60405161133a939291906125c6565b60405180910390a25050505061134e61190d565b505050505050565b5f5f5f73ffffffffffffffffffffffffffffffffffffffff167f000000000000000000000000000000000000000000000000000000000000000073ffffffffffffffffffffffffffffffffffffffff16036113b35747905061144e565b7f000000000000000000000000000000000000000000000000000000000000000073ffffffffffffffffffffffffffffffffffffffff166370a08231306040518263ffffffff1660e01b815260040161140c91906120f3565b602060405180830381865afa158015611427573d5f5f3e3d5ffd5b505050506040513d601f19601f8201168201806040525081019061144b9190612480565b90505b600654811161145d575f61146c565b6006548161146b91906125fb565b5b91505090565b61147a611916565b5f81036114b3576040517f2c5211c600000000000000000000000000000000000000000000000000000000815260040160405180910390fd5b5f6114bc611356565b9050818110156114f8576040517fbb55fd2700000000000000000000000000000000000000000000000000000000815260040160405180910390fd5b5f73ffffffffffffffffffffffffffffffffffffffff167f000000000000000000000000000000000000000000000000000000000000000073ffffffffffffffffffffffffffffffffffffffff160361159b57611553610d66565b73ffffffffffffffffffffffffffffffffffffffff166108fc8390811502906040515f60405180830381858888f19350505050158015611595573d5f5f3e3d5ffd5b5061163f565b7f000000000000000000000000000000000000000000000000000000000000000073ffffffffffffffffffffffffffffffffffffffff1663a9059cbb6115df610d66565b846040518363ffffffff1660e01b81526004016115fd92919061259f565b6020604051808303815f875af1158015611619573d5f5f3e3d5ffd5b505050506040513d601f19601f8201168201806040525081019061163d919061239e565b505b7f0a2ac2d0ff5dd766a6215edf0289e7aedf3647514518fb2694c0c0584902e7cc8260405161166e9190611f08565b60405180910390a15050565b611682611916565b8060038190555050565b611694611916565b7f000000000000000000000000000000000000000000000000000000000000000073ffffffffffffffffffffffffffffffffffffffff168273ffffffffffffffffffffffffffffffffffffffff1603611719576040517fe6c4247b00000000000000000000000000000000000000000000000000000000815260040160405180910390fd5b8173ffffffffffffffffffffffffffffffffffffffff1663a9059cbb61173d610d66565b836040518363ffffffff1660e01b815260040161175b92919061259f565b6020604051808303815f875af1158015611777573d5f5f3e3d5ffd5b505050506040513d601f19601f8201168201806040525081019061179b919061239e565b505050565b5f8686868686866040516020016117bc9695949392919061262e565b6040516020818303038152906040528051906020012090509695505050505050565b6117e6611916565b5f73ffffffffffffffffffffffffffffffffffffffff168173ffffffffffffffffffffffffffffffffffffffff1603611856575f6040517f1e4fbdf700000000000000000000000000000000000000000000000000000000815260040161184d91906120f3565b60405180910390fd5b61185f816119fe565b50565b7f000000000000000000000000000000000000000000000000000000000000000081565b6002600154036118c2576040517f3ee5aeb500000000000000000000000000000000000000000000000000000000815260040160405180910390fd5b6002600181905550565b6118d4610b1f565b1561190b576040517fd93c066500000000000000000000000000000000000000000000000000000000815260040160405180910390fd5b565b60018081905550565b61191e611b7e565b73ffffffffffffffffffffffffffffffffffffffff1661193c610d66565b73ffffffffffffffffffffffffffffffffffffffff161461199b5761195f611b7e565b6040517f118cdaa700000000000000000000000000000000000000000000000000000000815260040161199291906120f3565b60405180910390fd5b565b6119a5611b85565b5f60025f6101000a81548160ff0219169083151502179055507f5db9ee0a495bf2e6ff9c91a7834c1ba4fdd244a5e8aa4e537bd38aeae4b073aa6119e7611b7e565b6040516119f491906120f3565b60405180910390a1565b5f5f5f9054906101000a900473ffffffffffffffffffffffffffffffffffffffff169050815f5f6101000a81548173ffffffffffffffffffffffffffffffffffffffff021916908373ffffffffffffffffffffffffffffffffffffffff1602179055508173ffffffffffffffffffffffffffffffffffffffff168173ffffffffffffffffffffffffffffffffffffffff167f8be0079c531659141344cd1fd0a4f28419497f9722a3daafe3b4186f6b6457e060405160405180910390a35050565b611ac76118cc565b600160025f6101000a81548160ff0219169083151502179055507f62e78cea01bee320cd4e420270b5ea74000d11b0c9f74754ebdbfc544b05a258611b0a611b7e565b604051611b1791906120f3565b60405180910390a1565b5f7f19457468657265756d205369676e6564204d6573736167653a0a3332000000005f5281601c52603c5f209050919050565b5f5f5f5f611b628686611bc5565b925092509250611b728282611c1a565b82935050505092915050565b5f33905090565b611b8d610b1f565b611bc3576040517f8dfc202b00000000000000000000000000000000000000000000000000000000815260040160405180910390fd5b565b5f5f5f6041845103611c05575f5f5f602087015192506040870151915060608701515f1a9050611bf788828585611d7c565b955095509550505050611c13565b5f600285515f1b9250925092505b9250925092565b5f6003811115611c2d57611c2c61269d565b5b826003811115611c4057611c3f61269d565b5b0315611d785760016003811115611c5a57611c5961269d565b5b826003811115611c6d57611c6c61269d565b5b03611ca4576040517ff645eedf00000000000000000000000000000000000000000000000000000000815260040160405180910390fd5b60026003811115611cb857611cb761269d565b5b826003811115611ccb57611cca61269d565b5b03611d0f57805f1c6040517ffce698f7000000000000000000000000000000000000000000000000000000008152600401611d069190611f08565b60405180910390fd5b600380811115611d2257611d2161269d565b5b826003811115611d3557611d3461269d565b5b03611d7757806040517fd78bce0c000000000000000000000000000000000000000000000000000000008152600401611d6e9190611fc7565b60405180910390fd5b5b5050565b5f5f5f7f7fffffffffffffffffffffffffffffff5d576e7357a4501ddfe92f46681b20a0845f1c1115611db8575f600385925092509250611e59565b5f6001888888886040515f8152602001604052604051611ddb94939291906126e5565b6020604051602081039080840390855afa158015611dfb573d5f5f3e3d5ffd5b5050506020604051035190505f73ffffffffffffffffffffffffffffffffffffffff168173ffffffffffffffffffffffffffffffffffffffff1603611e4c575f60015f5f1b93509350935050611e59565b805f5f5f1b935093509350505b9450945094915050565b5f5ffd5b5f5ffd5b5f73ffffffffffffffffffffffffffffffffffffffff82169050919050565b5f611e9482611e6b565b9050919050565b611ea481611e8a565b8114611eae575f5ffd5b50565b5f81359050611ebf81611e9b565b92915050565b5f60208284031215611eda57611ed9611e63565b5b5f611ee784828501611eb1565b91505092915050565b5f819050919050565b611f0281611ef0565b82525050565b5f602082019050611f1b5f830184611ef9565b92915050565b611f2a81611ef0565b8114611f34575f5ffd5b50565b5f81359050611f4581611f21565b92915050565b5f5f5f5f60808587031215611f6357611f62611e63565b5b5f611f7087828801611f37565b9450506020611f8187828801611f37565b9350506040611f9287828801611f37565b9250506060611fa387828801611f37565b91505092959194509250565b5f819050919050565b611fc181611faf565b82525050565b5f602082019050611fda5f830184611fb8565b92915050565b5f8115159050919050565b611ff481611fe0565b82525050565b5f60208201905061200d5f830184611feb565b92915050565b5f6020828403121561202857612027611e63565b5b5f61203584828501611f37565b91505092915050565b5f5f6040838503121561205457612053611e63565b5b5f61206185828601611eb1565b925050602061207285828601611f37565b9150509250929050565b61208581611fe0565b811461208f575f5ffd5b50565b5f813590506120a08161207c565b92915050565b5f5f604083850312156120bc576120bb611e63565b5b5f6120c985828601611eb1565b92505060206120da85828601612092565b9150509250929050565b6120ed81611e8a565b82525050565b5f6020820190506121065f8301846120e4565b92915050565b5f5ffd5b5f5ffd5b5f5ffd5b5f5f83601f84011261212d5761212c61210c565b5b8235905067ffffffffffffffff81111561214a57612149612110565b5b60208301915083600182028301111561216657612165612114565b5b9250929050565b5f5f5f5f5f5f60a0878903121561218757612186611e63565b5b5f61219489828a01611eb1565b96505060206121a589828a01611f37565b95505060406121b689828a01611f37565b94505060606121c789828a01611f37565b935050608087013567ffffffffffffffff8111156121e8576121e7611e67565b5b6121f489828a01612118565b92509250509295509295509295565b61220c81611faf565b8114612216575f5ffd5b50565b5f8135905061222781612203565b92915050565b5f6020828403121561224257612241611e63565b5b5f61224f84828501612219565b91505092915050565b5f5f5f5f5f5f60c0878903121561227257612271611e63565b5b5f61227f89828a01611eb1565b965050602061229089828a01611f37565b95505060406122a189828a01611f37565b94505060606122b289828a01611f37565b93505060806122c389828a01611f37565b92505060a06122d489828a01611eb1565b9150509295509295509295565b5f819050919050565b5f6123046122ff6122fa84611e6b565b6122e1565b611e6b565b9050919050565b5f612315826122ea565b9050919050565b5f6123268261230b565b9050919050565b6123368161231c565b82525050565b5f60208201905061234f5f83018461232d565b92915050565b5f6060820190506123685f8301866120e4565b61237560208301856120e4565b6123826040830184611ef9565b949350505050565b5f815190506123988161207c565b92915050565b5f602082840312156123b3576123b2611e63565b5b5f6123c08482850161238a565b91505092915050565b7f4e487b71000000000000000000000000000000000000000000000000000000005f52601160045260245ffd5b5f61240082611ef0565b915061240b83611ef0565b9250828201905080821115612423576124226123c9565b5b92915050565b5f60808201905061243c5f830187611ef9565b6124496020830186611ef9565b6124566040830185611ef9565b6124636060830184611ef9565b95945050505050565b5f8151905061247a81611f21565b92915050565b5f6020828403121561249557612494611e63565b5b5f6124a28482850161246c565b91505092915050565b5f8160601b9050919050565b5f6124c1826124ab565b9050919050565b5f6124d2826124b7565b9050919050565b6124ea6124e582611e8a565b6124c8565b82525050565b5f819050919050565b61250a61250582611ef0565b6124f0565b82525050565b5f819050919050565b61252a61252582611faf565b612510565b82525050565b5f61253b82896124d9565b60148201915061254b82886124f9565b60208201915061255b82876124f9565b60208201915061256b82866124f9565b60208201915061257b82856124f9565b60208201915061258b8284612519565b602082019150819050979650505050505050565b5f6040820190506125b25f8301856120e4565b6125bf6020830184611ef9565b9392505050565b5f6060820190506125d95f830186611ef9565b6125e66020830185611ef9565b6125f36040830184611ef9565b949350505050565b5f61260582611ef0565b915061261083611ef0565b9250828203905081811115612628576126276123c9565b5b92915050565b5f61263982896124d9565b60148201915061264982886124f9565b60208201915061265982876124f9565b60208201915061266982866124f9565b60208201915061267982856124f9565b60208201915061268982846124d9565b601482019150819050979650505050505050565b7f4e487b71000000000000000000000000000000000000000000000000000000005f52602160045260245ffd5b5f60ff82169050919050565b6126df816126ca565b82525050565b5f6080820190506126f85f830187611fb8565b61270560208301866126d6565b6127126040830185611fb8565b61271f6060830184611fb8565b9594505050505056fea2646970667358221220e52d30f388d073fadb70f353cb82a4aa272c3d5fa8e780f750afb878d16c8e9b64736f6c634300081d0033","linkReferences":{}},"methodIdentifiers":{"CHAIN_ID()":"85e1f4d0","addLiquidity(uint256)":"51c6590a","authorizedRelayers(address)":"29e295c5","emergencyTokenRecovery(address,uint256)":"b49b0cb3","getAvailableLiquidity()":"9b745aec","getContractBalance()":"6f9fb98a","getMessageHash(address,uint256,uint256,uint256,uint256,address)":"c622dfcd","isNonceProcessed(address,uint256)":"90bb075d","lockTokens(uint256,uint256,uint256,uint256)":"0ef00a6e","lockedBalances(address)":"0483a7f6","otherChainContract()":"24a94bd5","owner()":"8da5cb5b","pause()":"8456cb59","paused()":"5c975abb","processedNonces(address,uint256)":"7cc70240","removeLiquidity(uint256)":"9c8f9f23","renounceOwnership()":"715018a6","setOtherChainContract(bytes32)":"a0193ac8","setRelayerStatus(address,bool)":"86015834","token()":"fc0c546a","totalLocked()":"56891412","transferOwnership(address)":"f2fde38b","unlockTokens(address,uint256,uint256,uint256,bytes)":"99d8f22b","unpause()":"3f4ba83a"},"storageLayout":{"storage":[{"astId":8,"contract":"src/BridgeBase.sol:BridgeVault","label":"_owner","offset":0,"slot":"0","type":"t_address"},{"astId":426,"contract":"src/BridgeBase.sol:BridgeVault","label":"_status","offset":0,"slot":"1","type":"t_uint256"},{"astId":316,"contract":"src/BridgeBase.sol:BridgeVault","label":"_paused","offset":0,"slot":"2","type":"t_bool"},{"astId":5883,"contract":"src/BridgeBase.sol:BridgeVault","label":"otherChainContract","offset":0,"slot":"3","type":"t_bytes32"},{"astId":5890,"contract":"src/BridgeBase.sol:BridgeVault","label":"processedNonces","offset":0,"slot":"4","type":"t_mapping(t_address,t_mapping(t_uint256,t_bool))"},{"astId":5895,"contract":"src/BridgeBase.sol:BridgeVault","label":"lockedBalances","offset":0,"slot":"5","type":"t_mapping(t_address,t_uint256)"},{"astId":5898,"contract":"src/BridgeBase.sol:BridgeVault","label":"totalLocked","offset":0,"slot":"6","type":"t_uint256"},{"astId":5903,"contract":"src/BridgeBase.sol:BridgeVault","label":"authorizedRelayers","offset":0,"slot":"7","type":"t_mapping(t_address,t_bool)"}],"types":{"t_address":{"encoding":"inplace","label":"address","numberOfBytes":"20"},"t_bool":{"encoding":"inplace","label":"bool","numberOfBytes":"1"},"t_bytes32":{"encoding":"inplace","label":"bytes32","numberOfBytes":"32"},"t_mapping(t_address,t_bool)":{"encoding":"mapping","key":"t_address","label":"mapping(address => bool)","numberOfBytes":"32","value":"t_bool"},"t_mapping(t_address,t_mapping(t_uint256,t_bool))":{"encoding":"mapping","key":"t_address","label":"mapping(address => mapping(uint256 => bool))","numberOfBytes":"32","value":"t_mapping(t_uint256,t_bool)"},"t_mapping(t_address,t_uint256)":{"encoding":"mapping","key":"t_address","label":"mapping(address => uint256)","numberOfBytes":"32","value":"t_uint256"},"t_mapping(t_uint256,t_bool)":{"encoding":"mapping","key":"t_uint256","label":"mapping(uint256 => bool)","numberOfBytes":"32","value":"t_bool"},"t_uint256":{"encoding":"inplace","label":"uint256","numberOfBytes":"32"}}},"id":13}